{
  "_format": "hh-sol-artifact-1",
  "contractName": "Champion",
  "sourceName": "contracts/Champion.sol",
  "abi": [
    {
      "inputs": [],
      "stateMutability": "nonpayable",
      "type": "constructor"
    },
    {
      "anonymous": false,
      "inputs": [
        {
          "indexed": false,
          "internalType": "address",
          "name": "previousAdmin",
          "type": "address"
        },
        {
          "indexed": false,
          "internalType": "address",
          "name": "newAdmin",
          "type": "address"
        }
      ],
      "name": "AdminChanged",
      "type": "event"
    },
    {
      "anonymous": false,
      "inputs": [
        {
          "indexed": true,
          "internalType": "address",
          "name": "owner",
          "type": "address"
        },
        {
          "indexed": true,
          "internalType": "address",
          "name": "approved",
          "type": "address"
        },
        {
          "indexed": true,
          "internalType": "uint256",
          "name": "tokenId",
          "type": "uint256"
        }
      ],
      "name": "Approval",
      "type": "event"
    },
    {
      "anonymous": false,
      "inputs": [
        {
          "indexed": true,
          "internalType": "address",
          "name": "owner",
          "type": "address"
        },
        {
          "indexed": true,
          "internalType": "address",
          "name": "operator",
          "type": "address"
        },
        {
          "indexed": false,
          "internalType": "bool",
          "name": "approved",
          "type": "bool"
        }
      ],
      "name": "ApprovalForAll",
      "type": "event"
    },
    {
      "anonymous": false,
      "inputs": [
        {
          "indexed": true,
          "internalType": "address",
          "name": "beacon",
          "type": "address"
        }
      ],
      "name": "BeaconUpgraded",
      "type": "event"
    },
    {
      "anonymous": false,
      "inputs": [
        {
          "indexed": true,
          "internalType": "address",
          "name": "_from",
          "type": "address"
        },
        {
          "indexed": true,
          "internalType": "address",
          "name": "_to",
          "type": "address"
        },
        {
          "indexed": false,
          "internalType": "uint256",
          "name": "_value",
          "type": "uint256"
        }
      ],
      "name": "MintFeeTransfer",
      "type": "event"
    },
    {
      "anonymous": false,
      "inputs": [
        {
          "indexed": true,
          "internalType": "address",
          "name": "previousOwner",
          "type": "address"
        },
        {
          "indexed": true,
          "internalType": "address",
          "name": "newOwner",
          "type": "address"
        }
      ],
      "name": "OwnershipTransferred",
      "type": "event"
    },
    {
      "anonymous": false,
      "inputs": [
        {
          "indexed": false,
          "internalType": "address",
          "name": "account",
          "type": "address"
        }
      ],
      "name": "Paused",
      "type": "event"
    },
    {
      "anonymous": false,
      "inputs": [
        {
          "indexed": true,
          "internalType": "address",
          "name": "from",
          "type": "address"
        },
        {
          "indexed": true,
          "internalType": "address",
          "name": "to",
          "type": "address"
        },
        {
          "indexed": true,
          "internalType": "uint256",
          "name": "tokenId",
          "type": "uint256"
        }
      ],
      "name": "Transfer",
      "type": "event"
    },
    {
      "anonymous": false,
      "inputs": [
        {
          "indexed": false,
          "internalType": "address",
          "name": "account",
          "type": "address"
        }
      ],
      "name": "Unpaused",
      "type": "event"
    },
    {
      "anonymous": false,
      "inputs": [
        {
          "indexed": true,
          "internalType": "address",
          "name": "implementation",
          "type": "address"
        }
      ],
      "name": "Upgraded",
      "type": "event"
    },
    {
      "inputs": [],
      "name": "OGCap",
      "outputs": [
        {
          "internalType": "uint256",
          "name": "",
          "type": "uint256"
        }
      ],
      "stateMutability": "view",
      "type": "function"
    },
    {
      "inputs": [
        {
          "internalType": "address",
          "name": "to",
          "type": "address"
        },
        {
          "internalType": "uint256",
          "name": "tokenId",
          "type": "uint256"
        }
      ],
      "name": "approve",
      "outputs": [],
      "stateMutability": "nonpayable",
      "type": "function"
    },
    {
      "inputs": [
        {
          "internalType": "address",
          "name": "owner",
          "type": "address"
        }
      ],
      "name": "balanceOf",
      "outputs": [
        {
          "internalType": "uint256",
          "name": "",
          "type": "uint256"
        }
      ],
      "stateMutability": "view",
      "type": "function"
    },
    {
      "inputs": [],
      "name": "cap",
      "outputs": [
        {
          "internalType": "uint256",
          "name": "",
          "type": "uint256"
        }
      ],
      "stateMutability": "view",
      "type": "function"
    },
    {
      "inputs": [
        {
          "internalType": "address",
          "name": "treasuryaddress",
          "type": "address"
        }
      ],
      "name": "changeTreasuryAddress",
      "outputs": [],
      "stateMutability": "nonpayable",
      "type": "function"
    },
    {
      "inputs": [],
      "name": "currentPrice",
      "outputs": [
        {
          "internalType": "uint256",
          "name": "",
          "type": "uint256"
        }
      ],
      "stateMutability": "view",
      "type": "function"
    },
    {
      "inputs": [
        {
          "internalType": "uint256",
          "name": "tokenId",
          "type": "uint256"
        }
      ],
      "name": "getApproved",
      "outputs": [
        {
          "internalType": "address",
          "name": "",
          "type": "address"
        }
      ],
      "stateMutability": "view",
      "type": "function"
    },
    {
      "inputs": [
        {
          "internalType": "uint256",
          "name": "amount",
          "type": "uint256"
        }
      ],
      "name": "increaseCapBy",
      "outputs": [],
      "stateMutability": "nonpayable",
      "type": "function"
    },
    {
      "inputs": [],
      "name": "initialize",
      "outputs": [],
      "stateMutability": "nonpayable",
      "type": "function"
    },
    {
      "inputs": [
        {
          "internalType": "address",
          "name": "owner",
          "type": "address"
        },
        {
          "internalType": "address",
          "name": "operator",
          "type": "address"
        }
      ],
      "name": "isApprovedForAll",
      "outputs": [
        {
          "internalType": "bool",
          "name": "",
          "type": "bool"
        }
      ],
      "stateMutability": "view",
      "type": "function"
    },
    {
      "inputs": [],
      "name": "mintActive",
      "outputs": [
        {
          "internalType": "bool",
          "name": "",
          "type": "bool"
        }
      ],
      "stateMutability": "view",
      "type": "function"
    },
    {
      "inputs": [],
      "name": "name",
      "outputs": [
        {
          "internalType": "string",
          "name": "",
          "type": "string"
        }
      ],
      "stateMutability": "view",
      "type": "function"
    },
    {
      "inputs": [],
      "name": "owner",
      "outputs": [
        {
          "internalType": "address",
          "name": "",
          "type": "address"
        }
      ],
      "stateMutability": "view",
      "type": "function"
    },
    {
      "inputs": [
        {
          "internalType": "uint256",
          "name": "tokenId",
          "type": "uint256"
        }
      ],
      "name": "ownerOf",
      "outputs": [
        {
          "internalType": "address",
          "name": "",
          "type": "address"
        }
      ],
      "stateMutability": "view",
      "type": "function"
    },
    {
      "inputs": [],
      "name": "pause",
      "outputs": [],
      "stateMutability": "nonpayable",
      "type": "function"
    },
    {
      "inputs": [],
      "name": "paused",
      "outputs": [
        {
          "internalType": "bool",
          "name": "",
          "type": "bool"
        }
      ],
      "stateMutability": "view",
      "type": "function"
    },
    {
      "inputs": [
        {
          "internalType": "address",
          "name": "to",
          "type": "address"
        }
      ],
      "name": "preMintOG",
      "outputs": [],
      "stateMutability": "nonpayable",
      "type": "function"
    },
    {
      "inputs": [],
      "name": "renounceOwnership",
      "outputs": [],
      "stateMutability": "nonpayable",
      "type": "function"
    },
    {
      "inputs": [
        {
          "internalType": "address",
          "name": "to",
          "type": "address"
        }
      ],
      "name": "safeMint",
      "outputs": [],
      "stateMutability": "payable",
      "type": "function"
    },
    {
      "inputs": [
        {
          "internalType": "address",
          "name": "from",
          "type": "address"
        },
        {
          "internalType": "address",
          "name": "to",
          "type": "address"
        },
        {
          "internalType": "uint256",
          "name": "tokenId",
          "type": "uint256"
        }
      ],
      "name": "safeTransferFrom",
      "outputs": [],
      "stateMutability": "nonpayable",
      "type": "function"
    },
    {
      "inputs": [
        {
          "internalType": "address",
          "name": "from",
          "type": "address"
        },
        {
          "internalType": "address",
          "name": "to",
          "type": "address"
        },
        {
          "internalType": "uint256",
          "name": "tokenId",
          "type": "uint256"
        },
        {
          "internalType": "bytes",
          "name": "_data",
          "type": "bytes"
        }
      ],
      "name": "safeTransferFrom",
      "outputs": [],
      "stateMutability": "nonpayable",
      "type": "function"
    },
    {
      "inputs": [
        {
          "internalType": "address",
          "name": "operator",
          "type": "address"
        },
        {
          "internalType": "bool",
          "name": "approved",
          "type": "bool"
        }
      ],
      "name": "setApprovalForAll",
      "outputs": [],
      "stateMutability": "nonpayable",
      "type": "function"
    },
    {
      "inputs": [
        {
          "internalType": "string",
          "name": "baseURI_",
          "type": "string"
        }
      ],
      "name": "setBaseURI",
      "outputs": [],
      "stateMutability": "nonpayable",
      "type": "function"
    },
    {
      "inputs": [
        {
          "internalType": "bool",
          "name": "isMintActive",
          "type": "bool"
        }
      ],
      "name": "setMintActivity",
      "outputs": [],
      "stateMutability": "nonpayable",
      "type": "function"
    },
    {
      "inputs": [
        {
          "internalType": "bytes4",
          "name": "interfaceId",
          "type": "bytes4"
        }
      ],
      "name": "supportsInterface",
      "outputs": [
        {
          "internalType": "bool",
          "name": "",
          "type": "bool"
        }
      ],
      "stateMutability": "view",
      "type": "function"
    },
    {
      "inputs": [],
      "name": "symbol",
      "outputs": [
        {
          "internalType": "string",
          "name": "",
          "type": "string"
        }
      ],
      "stateMutability": "view",
      "type": "function"
    },
    {
      "inputs": [
        {
          "internalType": "uint256",
          "name": "index",
          "type": "uint256"
        }
      ],
      "name": "tokenByIndex",
      "outputs": [
        {
          "internalType": "uint256",
          "name": "",
          "type": "uint256"
        }
      ],
      "stateMutability": "view",
      "type": "function"
    },
    {
      "inputs": [
        {
          "internalType": "address",
          "name": "owner",
          "type": "address"
        },
        {
          "internalType": "uint256",
          "name": "index",
          "type": "uint256"
        }
      ],
      "name": "tokenOfOwnerByIndex",
      "outputs": [
        {
          "internalType": "uint256",
          "name": "",
          "type": "uint256"
        }
      ],
      "stateMutability": "view",
      "type": "function"
    },
    {
      "inputs": [
        {
          "internalType": "uint256",
          "name": "tokenId",
          "type": "uint256"
        }
      ],
      "name": "tokenURI",
      "outputs": [
        {
          "internalType": "string",
          "name": "",
          "type": "string"
        }
      ],
      "stateMutability": "view",
      "type": "function"
    },
    {
      "inputs": [],
      "name": "totalSupply",
      "outputs": [
        {
          "internalType": "uint256",
          "name": "",
          "type": "uint256"
        }
      ],
      "stateMutability": "view",
      "type": "function"
    },
    {
      "inputs": [
        {
          "internalType": "address",
          "name": "from",
          "type": "address"
        },
        {
          "internalType": "address",
          "name": "to",
          "type": "address"
        },
        {
          "internalType": "uint256",
          "name": "tokenId",
          "type": "uint256"
        }
      ],
      "name": "transferFrom",
      "outputs": [],
      "stateMutability": "nonpayable",
      "type": "function"
    },
    {
      "inputs": [
        {
          "internalType": "address",
          "name": "newOwner",
          "type": "address"
        }
      ],
      "name": "transferOwnership",
      "outputs": [],
      "stateMutability": "nonpayable",
      "type": "function"
    },
    {
      "inputs": [],
      "name": "treasuryAddress",
      "outputs": [
        {
          "internalType": "address",
          "name": "",
          "type": "address"
        }
      ],
      "stateMutability": "view",
      "type": "function"
    },
    {
      "inputs": [],
      "name": "unpause",
      "outputs": [],
      "stateMutability": "nonpayable",
      "type": "function"
    },
    {
      "inputs": [
        {
          "internalType": "address",
          "name": "newImplementation",
          "type": "address"
        }
      ],
      "name": "upgradeTo",
      "outputs": [],
      "stateMutability": "nonpayable",
      "type": "function"
    },
    {
      "inputs": [
        {
          "internalType": "address",
          "name": "newImplementation",
          "type": "address"
        },
        {
          "internalType": "bytes",
          "name": "data",
          "type": "bytes"
        }
      ],
      "name": "upgradeToAndCall",
      "outputs": [],
      "stateMutability": "payable",
      "type": "function"
    }
  ],
  "bytecode": "0x60a06040523073ffffffffffffffffffffffffffffffffffffffff1660809073ffffffffffffffffffffffffffffffffffffffff1660601b8152503480156200004757600080fd5b50600060019054906101000a900460ff16620000725760008054906101000a900460ff161562000083565b620000826200013f60201b60201c565b5b620000c5576040517f08c379a0000000000000000000000000000000000000000000000000000000008152600401620000bc9062000197565b60405180910390fd5b60008060019054906101000a900460ff16159050801562000116576001600060016101000a81548160ff02191690831515021790555060016000806101000a81548160ff0219169083151502179055505b8015620001385760008060016101000a81548160ff0219169083151502179055505b5062000219565b600062000157306200015d60201b62001cdf1760201c565b15905090565b600080823b905060008111915050919050565b60006200017f602e83620001b9565b91506200018c82620001ca565b604082019050919050565b60006020820190508181036000830152620001b28162000170565b9050919050565b600082825260208201905092915050565b7f496e697469616c697a61626c653a20636f6e747261637420697320616c72656160008201527f647920696e697469616c697a6564000000000000000000000000000000000000602082015250565b60805160601c615fc86200024d60003960008181610ba201528181610c31015281816110d301526111620152615fc86000f3fe60806040526004361061020f5760003560e01c80636352211e11610118578063a6f353f0116100a0578063c5f956af1161006f578063c5f956af14610733578063c87b56dd1461075e578063dddbdf9c1461079b578063e985e9c5146107c4578063f2fde38b146108015761020f565b8063a6f353f01461068d578063b5c8170d146106b6578063b88d4fde146106df578063be52a6ef146107085761020f565b80638456cb59116100e75780638456cb59146105cc5780638da5cb5b146105e357806395d89b411461060e5780639d1b464a14610639578063a22cb465146106645761020f565b80636352211e1461052457806370a0823114610561578063715018a61461059e5780638129fc1c146105b55761020f565b80633659cfe61161019b57806348fbcc5d1161016a57806348fbcc5d1461044e5780634f1ef286146104775780634f6ccce71461049357806355f804b3146104d05780635c975abb146104f95761020f565b80633659cfe6146103c95780633f4ba83a146103f257806340d097c31461040957806342842e0e146104255761020f565b806318160ddd116101e257806318160ddd146102e257806323b872dd1461030d57806325fd90f3146103365780632f745c5914610361578063355274ea1461039e5761020f565b806301ffc9a71461021457806306fdde0314610251578063081812fc1461027c578063095ea7b3146102b9575b600080fd5b34801561022057600080fd5b5061023b60048036038101906102369190614515565b61082a565b6040516102489190614cc7565b60405180910390f35b34801561025d57600080fd5b5061026661083c565b6040516102739190614ce2565b60405180910390f35b34801561028857600080fd5b506102a3600480360381019061029e91906145a8565b6108ce565b6040516102b09190614c60565b60405180910390f35b3480156102c557600080fd5b506102e060048036038101906102db91906144b0565b610953565b005b3480156102ee57600080fd5b506102f7610a6b565b6040516103049190615164565b60405180910390f35b34801561031957600080fd5b50610334600480360381019061032f9190614356565b610a78565b005b34801561034257600080fd5b5061034b610ad8565b6040516103589190614cc7565b60405180910390f35b34801561036d57600080fd5b50610388600480360381019061038391906144b0565b610af0565b6040516103959190615164565b60405180910390f35b3480156103aa57600080fd5b506103b3610b95565b6040516103c09190615164565b60405180910390f35b3480156103d557600080fd5b506103f060048036038101906103eb91906142f1565b610ba0565b005b3480156103fe57600080fd5b50610407610d4f565b005b610423600480360381019061041e91906142f1565b610dd5565b005b34801561043157600080fd5b5061044c60048036038101906104479190614356565b611017565b005b34801561045a57600080fd5b50610475600480360381019061047091906144ec565b611037565b005b610491600480360381019061048c919061445c565b6110d1565b005b34801561049f57600080fd5b506104ba60048036038101906104b591906145a8565b61120e565b6040516104c79190615164565b60405180910390f35b3480156104dc57600080fd5b506104f760048036038101906104f29190614567565b6112a5565b005b34801561050557600080fd5b5061050e6112c0565b60405161051b9190614cc7565b60405180910390f35b34801561053057600080fd5b5061054b600480360381019061054691906145a8565b6112d7565b6040516105589190614c60565b60405180910390f35b34801561056d57600080fd5b50610588600480360381019061058391906142f1565b611389565b6040516105959190615164565b60405180910390f35b3480156105aa57600080fd5b506105b3611441565b005b3480156105c157600080fd5b506105ca6114c9565b005b3480156105d857600080fd5b506105e1611690565b005b3480156105ef57600080fd5b506105f8611716565b6040516106059190614c60565b60405180910390f35b34801561061a57600080fd5b50610623611740565b6040516106309190614ce2565b60405180910390f35b34801561064557600080fd5b5061064e6117d2565b60405161065b9190615164565b60405180910390f35b34801561067057600080fd5b5061068b60048036038101906106869190614420565b611860565b005b34801561069957600080fd5b506106b460048036038101906106af91906142f1565b611876565b005b3480156106c257600080fd5b506106dd60048036038101906106d891906145a8565b611937565b005b3480156106eb57600080fd5b50610706600480360381019061070191906143a5565b6119bf565b005b34801561071457600080fd5b5061071d611a21565b60405161072a9190615164565b60405180910390f35b34801561073f57600080fd5b50610748611a2c565b6040516107559190614c60565b60405180910390f35b34801561076a57600080fd5b50610785600480360381019061078091906145a8565b611a57565b6040516107929190614ce2565b60405180910390f35b3480156107a757600080fd5b506107c260048036038101906107bd91906142f1565b611a69565b005b3480156107d057600080fd5b506107eb60048036038101906107e6919061431a565b611b53565b6040516107f89190614cc7565b60405180910390f35b34801561080d57600080fd5b50610828600480360381019061082391906142f1565b611be7565b005b600061083582611cf2565b9050919050565b60606065805461084b906153c5565b80601f0160208091040260200160405190810160405280929190818152602001828054610877906153c5565b80156108c45780601f10610899576101008083540402835291602001916108c4565b820191906000526020600020905b8154815290600101906020018083116108a757829003601f168201915b5050505050905090565b60006108d982611d6c565b610918576040517f08c379a000000000000000000000000000000000000000000000000000000000815260040161090f90614fc4565b60405180910390fd5b6069600083815260200190815260200160002060009054906101000a900473ffffffffffffffffffffffffffffffffffffffff169050919050565b600061095e826112d7565b90508073ffffffffffffffffffffffffffffffffffffffff168373ffffffffffffffffffffffffffffffffffffffff1614156109cf576040517f08c379a00000000000000000000000000000000000000000000000000000000081526004016109c690615084565b60405180910390fd5b8073ffffffffffffffffffffffffffffffffffffffff166109ee611dd8565b73ffffffffffffffffffffffffffffffffffffffff161480610a1d5750610a1c81610a17611dd8565b611b53565b5b610a5c576040517f08c379a0000000000000000000000000000000000000000000000000000000008152600401610a5390614f04565b60405180910390fd5b610a668383611de0565b505050565b6000609980549050905090565b610a89610a83611dd8565b82611e99565b610ac8576040517f08c379a0000000000000000000000000000000000000000000000000000000008152600401610abf906150c4565b60405180910390fd5b610ad3838383611f77565b505050565b60006101f760009054906101000a900460ff16905090565b6000610afb83611389565b8210610b3c576040517f08c379a0000000000000000000000000000000000000000000000000000000008152600401610b3390614d44565b60405180910390fd5b609760008473ffffffffffffffffffffffffffffffffffffffff1673ffffffffffffffffffffffffffffffffffffffff168152602001908152602001600020600083815260200190815260200160002054905092915050565b600061019154905090565b7f000000000000000000000000000000000000000000000000000000000000000073ffffffffffffffffffffffffffffffffffffffff163073ffffffffffffffffffffffffffffffffffffffff161415610c2f576040517f08c379a0000000000000000000000000000000000000000000000000000000008152600401610c2690614de4565b60405180910390fd5b7f000000000000000000000000000000000000000000000000000000000000000073ffffffffffffffffffffffffffffffffffffffff16610c6e6121d3565b73ffffffffffffffffffffffffffffffffffffffff1614610cc4576040517f08c379a0000000000000000000000000000000000000000000000000000000008152600401610cbb90614ea4565b60405180910390fd5b610ccd8161222a565b610d4c81600067ffffffffffffffff811115610d12577f4e487b7100000000000000000000000000000000000000000000000000000000600052604160045260246000fd5b6040519080825280601f01601f191660200182016040528015610d445781602001600182028036833780820191505090505b5060006122a9565b50565b610d57611dd8565b73ffffffffffffffffffffffffffffffffffffffff16610d75611716565b73ffffffffffffffffffffffffffffffffffffffff1614610dcb576040517f08c379a0000000000000000000000000000000000000000000000000000000008152600401610dc290615004565b60405180910390fd5b610dd361247a565b565b6101f760009054906101000a900460ff16610e25576040517f08c379a0000000000000000000000000000000000000000000000000000000008152600401610e1c90614e84565b60405180910390fd5b6000610e326101f661251c565b9050610e3f6101f661252a565b60006101fa60009054906101000a900473ffffffffffffffffffffffffffffffffffffffff169050610e6f6117d2565b3414610eb0576040517f08c379a0000000000000000000000000000000000000000000000000000000008152600401610ea790615064565b60405180910390fd5b61019154821115610ef6576040517f08c379a0000000000000000000000000000000000000000000000000000000008152600401610eed90615124565b60405180910390fd5b60008173ffffffffffffffffffffffffffffffffffffffff1634604051610f1c90614c4b565b60006040518083038185875af1925050503d8060008114610f59576040519150601f19603f3d011682016040523d82523d6000602084013e610f5e565b606091505b5050905080610fa2576040517f08c379a0000000000000000000000000000000000000000000000000000000008152600401610f9990614e04565b60405180910390fd5b610fac8484612540565b8173ffffffffffffffffffffffffffffffffffffffff163373ffffffffffffffffffffffffffffffffffffffff167fae1df1121d656342a2421e21b4972252d735307cb461570a6374d87755c95deb346040516110099190615164565b60405180910390a350505050565b611032838383604051806020016040528060008152506119bf565b505050565b61103f611dd8565b73ffffffffffffffffffffffffffffffffffffffff1661105d611716565b73ffffffffffffffffffffffffffffffffffffffff16146110b3576040517f08c379a00000000000000000000000000000000000000000000000000000000081526004016110aa90615004565b60405180910390fd5b806101f760006101000a81548160ff02191690831515021790555050565b7f000000000000000000000000000000000000000000000000000000000000000073ffffffffffffffffffffffffffffffffffffffff163073ffffffffffffffffffffffffffffffffffffffff161415611160576040517f08c379a000000000000000000000000000000000000000000000000000000000815260040161115790614de4565b60405180910390fd5b7f000000000000000000000000000000000000000000000000000000000000000073ffffffffffffffffffffffffffffffffffffffff1661119f6121d3565b73ffffffffffffffffffffffffffffffffffffffff16146111f5576040517f08c379a00000000000000000000000000000000000000000000000000000000081526004016111ec90614ea4565b60405180910390fd5b6111fe8261222a565b61120a828260016122a9565b5050565b6000611218610a6b565b8210611259576040517f08c379a0000000000000000000000000000000000000000000000000000000008152600401611250906150e4565b60405180910390fd5b60998281548110611293577f4e487b7100000000000000000000000000000000000000000000000000000000600052603260045260246000fd5b90600052602060002001549050919050565b806101f990805190602001906112bc929190614115565b5050565b600060c960009054906101000a900460ff16905090565b6000806067600084815260200190815260200160002060009054906101000a900473ffffffffffffffffffffffffffffffffffffffff169050600073ffffffffffffffffffffffffffffffffffffffff168173ffffffffffffffffffffffffffffffffffffffff161415611380576040517f08c379a000000000000000000000000000000000000000000000000000000000815260040161137790614f44565b60405180910390fd5b80915050919050565b60008073ffffffffffffffffffffffffffffffffffffffff168273ffffffffffffffffffffffffffffffffffffffff1614156113fa576040517f08c379a00000000000000000000000000000000000000000000000000000000081526004016113f190614f24565b60405180910390fd5b606860008373ffffffffffffffffffffffffffffffffffffffff1673ffffffffffffffffffffffffffffffffffffffff168152602001908152602001600020549050919050565b611449611dd8565b73ffffffffffffffffffffffffffffffffffffffff16611467611716565b73ffffffffffffffffffffffffffffffffffffffff16146114bd576040517f08c379a00000000000000000000000000000000000000000000000000000000081526004016114b490615004565b60405180910390fd5b6114c7600061255e565b565b600060019054906101000a900460ff166114f15760008054906101000a900460ff16156114fa565b6114f9612624565b5b611539576040517f08c379a000000000000000000000000000000000000000000000000000000000815260040161153090614f64565b60405180910390fd5b60008060019054906101000a900460ff161590508015611589576001600060016101000a81548160ff02191690831515021790555060016000806101000a81548160ff0219169083151502179055505b6115fd6040518060400160405280601881526020017f446546693a2054686520476f6473204368616d70696f6e7300000000000000008152506040518060400160405280600581526020017f4348414d50000000000000000000000000000000000000000000000000000000815250612635565b6116056126a2565b61160d61270b565b61161561276c565b61161d6127cd565b61162861138861282e565b6116326000612891565b61163c601e6128fe565b611644612958565b61164f6101f661252a565b61166c73a334873652d7efb6eb5985243e6424588260ab1b6129c1565b801561168d5760008060016101000a81548160ff0219169083151502179055505b50565b611698611dd8565b73ffffffffffffffffffffffffffffffffffffffff166116b6611716565b73ffffffffffffffffffffffffffffffffffffffff161461170c576040517f08c379a000000000000000000000000000000000000000000000000000000000815260040161170390615004565b60405180910390fd5b611714612a55565b565b600060fb60009054906101000a900473ffffffffffffffffffffffffffffffffffffffff16905090565b60606066805461174f906153c5565b80601f016020809104026020016040519081016040528092919081815260200182805461177b906153c5565b80156117c85780601f1061179d576101008083540402835291602001916117c8565b820191906000526020600020905b8154815290600101906020018083116117ab57829003601f168201915b5050505050905090565b6000806117dd610a6b565b9050610fa08111156117fb57685ede20f01a4598000091505061185d565b610bb881111561181757685150ae84a8cdf0000091505061185d565b6107d0811115611833576843c33c19375648000091505061185d565b6103e881111561184f57683635c9adc5dea0000091505061185d565b6828a857425466f800009150505b90565b61187261186b611dd8565b8383612af8565b5050565b61187e611dd8565b73ffffffffffffffffffffffffffffffffffffffff1661189c611716565b73ffffffffffffffffffffffffffffffffffffffff16146118f2576040517f08c379a00000000000000000000000000000000000000000000000000000000081526004016118e990615004565b60405180910390fd5b806101fa60006101000a81548173ffffffffffffffffffffffffffffffffffffffff021916908373ffffffffffffffffffffffffffffffffffffffff16021790555050565b61193f611dd8565b73ffffffffffffffffffffffffffffffffffffffff1661195d611716565b73ffffffffffffffffffffffffffffffffffffffff16146119b3576040517f08c379a00000000000000000000000000000000000000000000000000000000081526004016119aa90615004565b60405180910390fd5b6119bc81612c65565b50565b6119d06119ca611dd8565b83611e99565b611a0f576040517f08c379a0000000000000000000000000000000000000000000000000000000008152600401611a06906150c4565b60405180910390fd5b611a1b84848484612cc5565b50505050565b60006101f854905090565b60006101fa60009054906101000a900473ffffffffffffffffffffffffffffffffffffffff16905090565b6060611a6282612d21565b9050919050565b611a71611dd8565b73ffffffffffffffffffffffffffffffffffffffff16611a8f611716565b73ffffffffffffffffffffffffffffffffffffffff1614611ae5576040517f08c379a0000000000000000000000000000000000000000000000000000000008152600401611adc90615004565b60405180910390fd5b6000611af26101f661251c565b9050611aff6101f661252a565b6101f854811115611b45576040517f08c379a0000000000000000000000000000000000000000000000000000000008152600401611b3c90615144565b60405180910390fd5b611b4f8282612540565b5050565b6000606a60008473ffffffffffffffffffffffffffffffffffffffff1673ffffffffffffffffffffffffffffffffffffffff16815260200190815260200160002060008373ffffffffffffffffffffffffffffffffffffffff1673ffffffffffffffffffffffffffffffffffffffff16815260200190815260200160002060009054906101000a900460ff16905092915050565b611bef611dd8565b73ffffffffffffffffffffffffffffffffffffffff16611c0d611716565b73ffffffffffffffffffffffffffffffffffffffff1614611c63576040517f08c379a0000000000000000000000000000000000000000000000000000000008152600401611c5a90615004565b60405180910390fd5b600073ffffffffffffffffffffffffffffffffffffffff168173ffffffffffffffffffffffffffffffffffffffff161415611cd3576040517f08c379a0000000000000000000000000000000000000000000000000000000008152600401611cca90614da4565b60405180910390fd5b611cdc8161255e565b50565b600080823b905060008111915050919050565b60007f780e9d63000000000000000000000000000000000000000000000000000000007bffffffffffffffffffffffffffffffffffffffffffffffffffffffff1916827bffffffffffffffffffffffffffffffffffffffffffffffffffffffff19161480611d655750611d6482612e74565b5b9050919050565b60008073ffffffffffffffffffffffffffffffffffffffff166067600084815260200190815260200160002060009054906101000a900473ffffffffffffffffffffffffffffffffffffffff1673ffffffffffffffffffffffffffffffffffffffff1614159050919050565b600033905090565b816069600083815260200190815260200160002060006101000a81548173ffffffffffffffffffffffffffffffffffffffff021916908373ffffffffffffffffffffffffffffffffffffffff160217905550808273ffffffffffffffffffffffffffffffffffffffff16611e53836112d7565b73ffffffffffffffffffffffffffffffffffffffff167f8c5be1e5ebec7d5bd14f71427d1e84f3dd0314c0f7b2291e5b200ac8c7c3b92560405160405180910390a45050565b6000611ea482611d6c565b611ee3576040517f08c379a0000000000000000000000000000000000000000000000000000000008152600401611eda90614ec4565b60405180910390fd5b6000611eee836112d7565b90508073ffffffffffffffffffffffffffffffffffffffff168473ffffffffffffffffffffffffffffffffffffffff161480611f5d57508373ffffffffffffffffffffffffffffffffffffffff16611f45846108ce565b73ffffffffffffffffffffffffffffffffffffffff16145b80611f6e5750611f6d8185611b53565b5b91505092915050565b8273ffffffffffffffffffffffffffffffffffffffff16611f97826112d7565b73ffffffffffffffffffffffffffffffffffffffff1614611fed576040517f08c379a0000000000000000000000000000000000000000000000000000000008152600401611fe490615024565b60405180910390fd5b600073ffffffffffffffffffffffffffffffffffffffff168273ffffffffffffffffffffffffffffffffffffffff16141561205d576040517f08c379a000000000000000000000000000000000000000000000000000000000815260040161205490614e24565b60405180910390fd5b612068838383612f56565b612073600082611de0565b6001606860008573ffffffffffffffffffffffffffffffffffffffff1673ffffffffffffffffffffffffffffffffffffffff16815260200190815260200160002060008282546120c391906152db565b925050819055506001606860008473ffffffffffffffffffffffffffffffffffffffff1673ffffffffffffffffffffffffffffffffffffffff168152602001908152602001600020600082825461211a9190615254565b92505081905550816067600083815260200190815260200160002060006101000a81548173ffffffffffffffffffffffffffffffffffffffff021916908373ffffffffffffffffffffffffffffffffffffffff160217905550808273ffffffffffffffffffffffffffffffffffffffff168473ffffffffffffffffffffffffffffffffffffffff167fddf252ad1be2c89b69c2b068fc378daa952ba7f163c4a11628f55a4df523b3ef60405160405180910390a4505050565b60006122017f360894a13ba1a3210667c828492db98dca3e2076cc3735a920a3ca505d382bbc60001b612fae565b60000160009054906101000a900473ffffffffffffffffffffffffffffffffffffffff16905090565b612232611dd8565b73ffffffffffffffffffffffffffffffffffffffff16612250611716565b73ffffffffffffffffffffffffffffffffffffffff16146122a6576040517f08c379a000000000000000000000000000000000000000000000000000000000815260040161229d90615004565b60405180910390fd5b50565b60006122b36121d3565b90506122be84612fb8565b6000835111806122cb5750815b156122dc576122da8484613071565b505b600061230a7f4910fdfa16fed3260ed0e7147f7cc6da11a60208b5b9406d12a635614ffd914360001b613155565b90508060000160009054906101000a900460ff166124735760018160000160006101000a81548160ff0219169083151502179055506123d685836040516024016123549190614c60565b6040516020818303038152906040527f3659cfe6000000000000000000000000000000000000000000000000000000007bffffffffffffffffffffffffffffffffffffffffffffffffffffffff19166020820180517bffffffffffffffffffffffffffffffffffffffffffffffffffffffff8381831617835250505050613071565b5060008160000160006101000a81548160ff0219169083151502179055506123fc6121d3565b73ffffffffffffffffffffffffffffffffffffffff168273ffffffffffffffffffffffffffffffffffffffff1614612469576040517f08c379a000000000000000000000000000000000000000000000000000000000815260040161246090614d84565b60405180910390fd5b6124728561315f565b5b5050505050565b6124826112c0565b6124c1576040517f08c379a00000000000000000000000000000000000000000000000000000000081526004016124b890614d24565b60405180910390fd5b600060c960006101000a81548160ff0219169083151502179055507f5db9ee0a495bf2e6ff9c91a7834c1ba4fdd244a5e8aa4e537bd38aeae4b073aa612505611dd8565b6040516125129190614c60565b60405180910390a1565b600081600001549050919050565b6001816000016000828254019250508190555050565b61255a8282604051806020016040528060008152506131ae565b5050565b600060fb60009054906101000a900473ffffffffffffffffffffffffffffffffffffffff1690508160fb60006101000a81548173ffffffffffffffffffffffffffffffffffffffff021916908373ffffffffffffffffffffffffffffffffffffffff1602179055508173ffffffffffffffffffffffffffffffffffffffff168173ffffffffffffffffffffffffffffffffffffffff167f8be0079c531659141344cd1fd0a4f28419497f9722a3daafe3b4186f6b6457e060405160405180910390a35050565b600061262f30611cdf565b15905090565b600060019054906101000a900460ff16612684576040517f08c379a000000000000000000000000000000000000000000000000000000000815260040161267b90615104565b60405180910390fd5b61268c613209565b61269461325a565b61269e82826132ab565b5050565b600060019054906101000a900460ff166126f1576040517f08c379a00000000000000000000000000000000000000000000000000000000081526004016126e890615104565b60405180910390fd5b6126f9613209565b61270161325a565b61270961332c565b565b600060019054906101000a900460ff1661275a576040517f08c379a000000000000000000000000000000000000000000000000000000000815260040161275190615104565b60405180910390fd5b612762613209565b61276a61337d565b565b600060019054906101000a900460ff166127bb576040517f08c379a00000000000000000000000000000000000000000000000000000000081526004016127b290615104565b60405180910390fd5b6127c3613209565b6127cb6133e9565b565b600060019054906101000a900460ff1661281c576040517f08c379a000000000000000000000000000000000000000000000000000000000815260040161281390615104565b60405180910390fd5b61282461344a565b61282c61349b565b565b600060019054906101000a900460ff1661287d576040517f08c379a000000000000000000000000000000000000000000000000000000000815260040161287490615104565b60405180910390fd5b612885613209565b61288e816134ec565b50565b600060019054906101000a900460ff166128e0576040517f08c379a00000000000000000000000000000000000000000000000000000000081526004016128d790615104565b60405180910390fd5b806101f760006101000a81548160ff02191690831515021790555050565b600060019054906101000a900460ff1661294d576040517f08c379a000000000000000000000000000000000000000000000000000000000815260040161294490615104565b60405180910390fd5b806101f88190555050565b600060019054906101000a900460ff166129a7576040517f08c379a000000000000000000000000000000000000000000000000000000000815260040161299e90615104565b60405180910390fd5b6129af613209565b6129b761325a565b6129bf613589565b565b600060019054906101000a900460ff16612a10576040517f08c379a0000000000000000000000000000000000000000000000000000000008152600401612a0790615104565b60405180910390fd5b806101fa60006101000a81548173ffffffffffffffffffffffffffffffffffffffff021916908373ffffffffffffffffffffffffffffffffffffffff16021790555050565b612a5d6112c0565b15612a9d576040517f08c379a0000000000000000000000000000000000000000000000000000000008152600401612a9490614ee4565b60405180910390fd5b600160c960006101000a81548160ff0219169083151502179055507f62e78cea01bee320cd4e420270b5ea74000d11b0c9f74754ebdbfc544b05a258612ae1611dd8565b604051612aee9190614c60565b60405180910390a1565b8173ffffffffffffffffffffffffffffffffffffffff168373ffffffffffffffffffffffffffffffffffffffff161415612b67576040517f08c379a0000000000000000000000000000000000000000000000000000000008152600401612b5e90614e44565b60405180910390fd5b80606a60008573ffffffffffffffffffffffffffffffffffffffff1673ffffffffffffffffffffffffffffffffffffffff16815260200190815260200160002060008473ffffffffffffffffffffffffffffffffffffffff1673ffffffffffffffffffffffffffffffffffffffff16815260200190815260200160002060006101000a81548160ff0219169083151502179055508173ffffffffffffffffffffffffffffffffffffffff168373ffffffffffffffffffffffffffffffffffffffff167f17307eab39ab6107e8899845ad3d59bd9653f200f220920489ca2b5937696c3183604051612c589190614cc7565b60405180910390a3505050565b60008111612ca8576040517f08c379a0000000000000000000000000000000000000000000000000000000008152600401612c9f90614e64565b60405180910390fd5b806101916000828254612cbb9190615254565b9250508190555050565b612cd0848484611f77565b612cdc848484846135da565b612d1b576040517f08c379a0000000000000000000000000000000000000000000000000000000008152600401612d1290614d64565b60405180910390fd5b50505050565b6060612d2c82611d6c565b612d6b576040517f08c379a0000000000000000000000000000000000000000000000000000000008152600401612d6290614fa4565b60405180910390fd5b60006101c460008481526020019081526020016000208054612d8c906153c5565b80601f0160208091040260200160405190810160405280929190818152602001828054612db8906153c5565b8015612e055780601f10612dda57610100808354040283529160200191612e05565b820191906000526020600020905b815481529060010190602001808311612de857829003601f168201915b505050505090506000612e16613771565b9050600081511415612e2c578192505050612e6f565b600082511115612e61578082604051602001612e49929190614bf8565b60405160208183030381529060405292505050612e6f565b612e6a84613791565b925050505b919050565b60007f80ac58cd000000000000000000000000000000000000000000000000000000007bffffffffffffffffffffffffffffffffffffffffffffffffffffffff1916827bffffffffffffffffffffffffffffffffffffffffffffffffffffffff19161480612f3f57507f5b5e139f000000000000000000000000000000000000000000000000000000007bffffffffffffffffffffffffffffffffffffffffffffffffffffffff1916827bffffffffffffffffffffffffffffffffffffffffffffffffffffffff1916145b80612f4f5750612f4e82613838565b5b9050919050565b612f5e6112c0565b15612f9e576040517f08c379a0000000000000000000000000000000000000000000000000000000008152600401612f9590614ee4565b60405180910390fd5b612fa98383836138a2565b505050565b6000819050919050565b612fc181611cdf565b613000576040517f08c379a0000000000000000000000000000000000000000000000000000000008152600401612ff790614fe4565b60405180910390fd5b8061302d7f360894a13ba1a3210667c828492db98dca3e2076cc3735a920a3ca505d382bbc60001b612fae565b60000160006101000a81548173ffffffffffffffffffffffffffffffffffffffff021916908373ffffffffffffffffffffffffffffffffffffffff16021790555050565b606061307c83611cdf565b6130bb576040517f08c379a00000000000000000000000000000000000000000000000000000000081526004016130b2906150a4565b60405180910390fd5b6000808473ffffffffffffffffffffffffffffffffffffffff16846040516130e39190614be1565b600060405180830381855af49150503d806000811461311e576040519150601f19603f3d011682016040523d82523d6000602084013e613123565b606091505b509150915061314b8282604051806060016040528060278152602001615f6c602791396139b6565b9250505092915050565b6000819050919050565b61316881612fb8565b8073ffffffffffffffffffffffffffffffffffffffff167fbc7cd75a20ee27fd9adebab32041f755214dbc6bffa90cc0225b39da2e5c2d3b60405160405180910390a250565b6131b88383613a1d565b6131c560008484846135da565b613204576040517f08c379a00000000000000000000000000000000000000000000000000000000081526004016131fb90614d64565b60405180910390fd5b505050565b600060019054906101000a900460ff16613258576040517f08c379a000000000000000000000000000000000000000000000000000000000815260040161324f90615104565b60405180910390fd5b565b600060019054906101000a900460ff166132a9576040517f08c379a00000000000000000000000000000000000000000000000000000000081526004016132a090615104565b60405180910390fd5b565b600060019054906101000a900460ff166132fa576040517f08c379a00000000000000000000000000000000000000000000000000000000081526004016132f190615104565b60405180910390fd5b8160659080519060200190613310929190614115565b508060669080519060200190613327929190614115565b505050565b600060019054906101000a900460ff1661337b576040517f08c379a000000000000000000000000000000000000000000000000000000000815260040161337290615104565b60405180910390fd5b565b600060019054906101000a900460ff166133cc576040517f08c379a00000000000000000000000000000000000000000000000000000000081526004016133c390615104565b60405180910390fd5b600060c960006101000a81548160ff021916908315150217905550565b600060019054906101000a900460ff16613438576040517f08c379a000000000000000000000000000000000000000000000000000000000815260040161342f90615104565b60405180910390fd5b613448613443611dd8565b61255e565b565b600060019054906101000a900460ff16613499576040517f08c379a000000000000000000000000000000000000000000000000000000000815260040161349090615104565b60405180910390fd5b565b600060019054906101000a900460ff166134ea576040517f08c379a00000000000000000000000000000000000000000000000000000000081526004016134e190615104565b60405180910390fd5b565b600060019054906101000a900460ff1661353b576040517f08c379a000000000000000000000000000000000000000000000000000000000815260040161353290615104565b60405180910390fd5b6000811161357e576040517f08c379a000000000000000000000000000000000000000000000000000000000815260040161357590614d04565b60405180910390fd5b806101918190555050565b600060019054906101000a900460ff166135d8576040517f08c379a00000000000000000000000000000000000000000000000000000000081526004016135cf90615104565b60405180910390fd5b565b60006135fb8473ffffffffffffffffffffffffffffffffffffffff16611cdf565b15613764578373ffffffffffffffffffffffffffffffffffffffff1663150b7a02613624611dd8565b8786866040518563ffffffff1660e01b81526004016136469493929190614c7b565b602060405180830381600087803b15801561366057600080fd5b505af192505050801561369157506040513d601f19601f8201168201806040525081019061368e919061453e565b60015b613714573d80600081146136c1576040519150601f19603f3d011682016040523d82523d6000602084013e6136c6565b606091505b5060008151141561370c576040517f08c379a000000000000000000000000000000000000000000000000000000000815260040161370390614d64565b60405180910390fd5b805181602001fd5b63150b7a0260e01b7bffffffffffffffffffffffffffffffffffffffffffffffffffffffff1916817bffffffffffffffffffffffffffffffffffffffffffffffffffffffff191614915050613769565b600190505b949350505050565b6060604051806080016040528060498152602001615f2360499139905090565b606061379c82611d6c565b6137db576040517f08c379a00000000000000000000000000000000000000000000000000000000081526004016137d290615044565b60405180910390fd5b60006137e5613771565b905060008151116138055760405180602001604052806000815250613830565b8061380f84613beb565b604051602001613820929190614c1c565b6040516020818303038152906040525b915050919050565b60007f01ffc9a7000000000000000000000000000000000000000000000000000000007bffffffffffffffffffffffffffffffffffffffffffffffffffffffff1916827bffffffffffffffffffffffffffffffffffffffffffffffffffffffff1916149050919050565b6138ad838383613d98565b600073ffffffffffffffffffffffffffffffffffffffff168373ffffffffffffffffffffffffffffffffffffffff1614156138f0576138eb81613d9d565b61392f565b8173ffffffffffffffffffffffffffffffffffffffff168373ffffffffffffffffffffffffffffffffffffffff161461392e5761392d8382613de6565b5b5b600073ffffffffffffffffffffffffffffffffffffffff168273ffffffffffffffffffffffffffffffffffffffff1614156139725761396d81613f53565b6139b1565b8273ffffffffffffffffffffffffffffffffffffffff168273ffffffffffffffffffffffffffffffffffffffff16146139b0576139af8282614096565b5b5b505050565b606083156139c657829050613a16565b6000835111156139d95782518084602001fd5b816040517f08c379a0000000000000000000000000000000000000000000000000000000008152600401613a0d9190614ce2565b60405180910390fd5b9392505050565b600073ffffffffffffffffffffffffffffffffffffffff168273ffffffffffffffffffffffffffffffffffffffff161415613a8d576040517f08c379a0000000000000000000000000000000000000000000000000000000008152600401613a8490614f84565b60405180910390fd5b613a9681611d6c565b15613ad6576040517f08c379a0000000000000000000000000000000000000000000000000000000008152600401613acd90614dc4565b60405180910390fd5b613ae260008383612f56565b6001606860008473ffffffffffffffffffffffffffffffffffffffff1673ffffffffffffffffffffffffffffffffffffffff1681526020019081526020016000206000828254613b329190615254565b92505081905550816067600083815260200190815260200160002060006101000a81548173ffffffffffffffffffffffffffffffffffffffff021916908373ffffffffffffffffffffffffffffffffffffffff160217905550808273ffffffffffffffffffffffffffffffffffffffff16600073ffffffffffffffffffffffffffffffffffffffff167fddf252ad1be2c89b69c2b068fc378daa952ba7f163c4a11628f55a4df523b3ef60405160405180910390a45050565b60606000821415613c33576040518060400160405280600181526020017f30000000000000000000000000000000000000000000000000000000000000008152509050613d93565b600082905060005b60008214613c65578080613c4e90615428565b915050600a82613c5e91906152aa565b9150613c3b565b60008167ffffffffffffffff811115613ca7577f4e487b7100000000000000000000000000000000000000000000000000000000600052604160045260246000fd5b6040519080825280601f01601f191660200182016040528015613cd95781602001600182028036833780820191505090505b5090505b60008514613d8c57600182613cf291906152db565b9150600a85613d019190615471565b6030613d0d9190615254565b60f81b818381518110613d49577f4e487b7100000000000000000000000000000000000000000000000000000000600052603260045260246000fd5b60200101907effffffffffffffffffffffffffffffffffffffffffffffffffffffffffffff1916908160001a905350600a85613d8591906152aa565b9450613cdd565b8093505050505b919050565b505050565b609980549050609a600083815260200190815260200160002081905550609981908060018154018082558091505060019003906000526020600020016000909190919091505550565b60006001613df384611389565b613dfd91906152db565b9050600060986000848152602001908152602001600020549050818114613ee2576000609760008673ffffffffffffffffffffffffffffffffffffffff1673ffffffffffffffffffffffffffffffffffffffff168152602001908152602001600020600084815260200190815260200160002054905080609760008773ffffffffffffffffffffffffffffffffffffffff1673ffffffffffffffffffffffffffffffffffffffff168152602001908152602001600020600084815260200190815260200160002081905550816098600083815260200190815260200160002081905550505b6098600084815260200190815260200160002060009055609760008573ffffffffffffffffffffffffffffffffffffffff1673ffffffffffffffffffffffffffffffffffffffff16815260200190815260200160002060008381526020019081526020016000206000905550505050565b60006001609980549050613f6791906152db565b90506000609a6000848152602001908152602001600020549050600060998381548110613fbd577f4e487b7100000000000000000000000000000000000000000000000000000000600052603260045260246000fd5b906000526020600020015490508060998381548110614005577f4e487b7100000000000000000000000000000000000000000000000000000000600052603260045260246000fd5b906000526020600020018190555081609a600083815260200190815260200160002081905550609a600085815260200190815260200160002060009055609980548061407a577f4e487b7100000000000000000000000000000000000000000000000000000000600052603160045260246000fd5b6001900381819060005260206000200160009055905550505050565b60006140a183611389565b905081609760008573ffffffffffffffffffffffffffffffffffffffff1673ffffffffffffffffffffffffffffffffffffffff168152602001908152602001600020600083815260200190815260200160002081905550806098600084815260200190815260200160002081905550505050565b828054614121906153c5565b90600052602060002090601f016020900481019282614143576000855561418a565b82601f1061415c57805160ff191683800117855561418a565b8280016001018555821561418a579182015b8281111561418957825182559160200191906001019061416e565b5b509050614197919061419b565b5090565b5b808211156141b457600081600090555060010161419c565b5090565b60006141cb6141c6846151a4565b61517f565b9050828152602081018484840111156141e357600080fd5b6141ee848285615383565b509392505050565b6000614209614204846151d5565b61517f565b90508281526020810184848401111561422157600080fd5b61422c848285615383565b509392505050565b60008135905061424381615ec6565b92915050565b60008135905061425881615edd565b92915050565b60008135905061426d81615ef4565b92915050565b60008151905061428281615ef4565b92915050565b600082601f83011261429957600080fd5b81356142a98482602086016141b8565b91505092915050565b600082601f8301126142c357600080fd5b81356142d38482602086016141f6565b91505092915050565b6000813590506142eb81615f0b565b92915050565b60006020828403121561430357600080fd5b600061431184828501614234565b91505092915050565b6000806040838503121561432d57600080fd5b600061433b85828601614234565b925050602061434c85828601614234565b9150509250929050565b60008060006060848603121561436b57600080fd5b600061437986828701614234565b935050602061438a86828701614234565b925050604061439b868287016142dc565b9150509250925092565b600080600080608085870312156143bb57600080fd5b60006143c987828801614234565b94505060206143da87828801614234565b93505060406143eb878288016142dc565b925050606085013567ffffffffffffffff81111561440857600080fd5b61441487828801614288565b91505092959194509250565b6000806040838503121561443357600080fd5b600061444185828601614234565b925050602061445285828601614249565b9150509250929050565b6000806040838503121561446f57600080fd5b600061447d85828601614234565b925050602083013567ffffffffffffffff81111561449a57600080fd5b6144a685828601614288565b9150509250929050565b600080604083850312156144c357600080fd5b60006144d185828601614234565b92505060206144e2858286016142dc565b9150509250929050565b6000602082840312156144fe57600080fd5b600061450c84828501614249565b91505092915050565b60006020828403121561452757600080fd5b60006145358482850161425e565b91505092915050565b60006020828403121561455057600080fd5b600061455e84828501614273565b91505092915050565b60006020828403121561457957600080fd5b600082013567ffffffffffffffff81111561459357600080fd5b61459f848285016142b2565b91505092915050565b6000602082840312156145ba57600080fd5b60006145c8848285016142dc565b91505092915050565b6145da8161530f565b82525050565b6145e981615321565b82525050565b60006145fa82615206565b614604818561521c565b9350614614818560208601615392565b61461d8161555e565b840191505092915050565b600061463382615206565b61463d818561522d565b935061464d818560208601615392565b80840191505092915050565b600061466482615211565b61466e8185615238565b935061467e818560208601615392565b6146878161555e565b840191505092915050565b600061469d82615211565b6146a78185615249565b93506146b7818560208601615392565b80840191505092915050565b60006146d0601583615238565b91506146db8261556f565b602082019050919050565b60006146f3601483615238565b91506146fe82615598565b602082019050919050565b6000614716602b83615238565b9150614721826155c1565b604082019050919050565b6000614739603283615238565b915061474482615610565b604082019050919050565b600061475c602f83615238565b91506147678261565f565b604082019050919050565b600061477f602683615238565b915061478a826156ae565b604082019050919050565b60006147a2601c83615238565b91506147ad826156fd565b602082019050919050565b60006147c5602c83615238565b91506147d082615726565b604082019050919050565b60006147e8601483615238565b91506147f382615775565b602082019050919050565b600061480b602483615238565b91506148168261579e565b604082019050919050565b600061482e601983615238565b9150614839826157ed565b602082019050919050565b6000614851602583615238565b915061485c82615816565b604082019050919050565b6000614874601b83615238565b915061487f82615865565b602082019050919050565b6000614897602c83615238565b91506148a28261588e565b604082019050919050565b60006148ba602c83615238565b91506148c5826158dd565b604082019050919050565b60006148dd601083615238565b91506148e88261592c565b602082019050919050565b6000614900603883615238565b915061490b82615955565b604082019050919050565b6000614923602a83615238565b915061492e826159a4565b604082019050919050565b6000614946602983615238565b9150614951826159f3565b604082019050919050565b6000614969602e83615238565b915061497482615a42565b604082019050919050565b600061498c602083615238565b915061499782615a91565b602082019050919050565b60006149af603183615238565b91506149ba82615aba565b604082019050919050565b60006149d2602c83615238565b91506149dd82615b09565b604082019050919050565b60006149f5600583615249565b9150614a0082615b58565b600582019050919050565b6000614a18602d83615238565b9150614a2382615b81565b604082019050919050565b6000614a3b602083615238565b9150614a4682615bd0565b602082019050919050565b6000614a5e602983615238565b9150614a6982615bf9565b604082019050919050565b6000614a81602f83615238565b9150614a8c82615c48565b604082019050919050565b6000614aa4601a83615238565b9150614aaf82615c97565b602082019050919050565b6000614ac7602183615238565b9150614ad282615cc0565b604082019050919050565b6000614aea602683615238565b9150614af582615d0f565b604082019050919050565b6000614b0d60008361522d565b9150614b1882615d5e565b600082019050919050565b6000614b30603183615238565b9150614b3b82615d61565b604082019050919050565b6000614b53602c83615238565b9150614b5e82615db0565b604082019050919050565b6000614b76602b83615238565b9150614b8182615dff565b604082019050919050565b6000614b99602283615238565b9150614ba482615e4e565b604082019050919050565b6000614bbc601d83615238565b9150614bc782615e9d565b602082019050919050565b614bdb81615379565b82525050565b6000614bed8284614628565b915081905092915050565b6000614c048285614692565b9150614c108284614692565b91508190509392505050565b6000614c288285614692565b9150614c348284614692565b9150614c3f826149e8565b91508190509392505050565b6000614c5682614b00565b9150819050919050565b6000602082019050614c7560008301846145d1565b92915050565b6000608082019050614c9060008301876145d1565b614c9d60208301866145d1565b614caa6040830185614bd2565b8181036060830152614cbc81846145ef565b905095945050505050565b6000602082019050614cdc60008301846145e0565b92915050565b60006020820190508181036000830152614cfc8184614659565b905092915050565b60006020820190508181036000830152614d1d816146c3565b9050919050565b60006020820190508181036000830152614d3d816146e6565b9050919050565b60006020820190508181036000830152614d5d81614709565b9050919050565b60006020820190508181036000830152614d7d8161472c565b9050919050565b60006020820190508181036000830152614d9d8161474f565b9050919050565b60006020820190508181036000830152614dbd81614772565b9050919050565b60006020820190508181036000830152614ddd81614795565b9050919050565b60006020820190508181036000830152614dfd816147b8565b9050919050565b60006020820190508181036000830152614e1d816147db565b9050919050565b60006020820190508181036000830152614e3d816147fe565b9050919050565b60006020820190508181036000830152614e5d81614821565b9050919050565b60006020820190508181036000830152614e7d81614844565b9050919050565b60006020820190508181036000830152614e9d81614867565b9050919050565b60006020820190508181036000830152614ebd8161488a565b9050919050565b60006020820190508181036000830152614edd816148ad565b9050919050565b60006020820190508181036000830152614efd816148d0565b9050919050565b60006020820190508181036000830152614f1d816148f3565b9050919050565b60006020820190508181036000830152614f3d81614916565b9050919050565b60006020820190508181036000830152614f5d81614939565b9050919050565b60006020820190508181036000830152614f7d8161495c565b9050919050565b60006020820190508181036000830152614f9d8161497f565b9050919050565b60006020820190508181036000830152614fbd816149a2565b9050919050565b60006020820190508181036000830152614fdd816149c5565b9050919050565b60006020820190508181036000830152614ffd81614a0b565b9050919050565b6000602082019050818103600083015261501d81614a2e565b9050919050565b6000602082019050818103600083015261503d81614a51565b9050919050565b6000602082019050818103600083015261505d81614a74565b9050919050565b6000602082019050818103600083015261507d81614a97565b9050919050565b6000602082019050818103600083015261509d81614aba565b9050919050565b600060208201905081810360008301526150bd81614add565b9050919050565b600060208201905081810360008301526150dd81614b23565b9050919050565b600060208201905081810360008301526150fd81614b46565b9050919050565b6000602082019050818103600083015261511d81614b69565b9050919050565b6000602082019050818103600083015261513d81614b8c565b9050919050565b6000602082019050818103600083015261515d81614baf565b9050919050565b60006020820190506151796000830184614bd2565b92915050565b600061518961519a565b905061519582826153f7565b919050565b6000604051905090565b600067ffffffffffffffff8211156151bf576151be61552f565b5b6151c88261555e565b9050602081019050919050565b600067ffffffffffffffff8211156151f0576151ef61552f565b5b6151f98261555e565b9050602081019050919050565b600081519050919050565b600081519050919050565b600082825260208201905092915050565b600081905092915050565b600082825260208201905092915050565b600081905092915050565b600061525f82615379565b915061526a83615379565b9250827fffffffffffffffffffffffffffffffffffffffffffffffffffffffffffffffff0382111561529f5761529e6154a2565b5b828201905092915050565b60006152b582615379565b91506152c083615379565b9250826152d0576152cf6154d1565b5b828204905092915050565b60006152e682615379565b91506152f183615379565b925082821015615304576153036154a2565b5b828203905092915050565b600061531a82615359565b9050919050565b60008115159050919050565b60007fffffffff0000000000000000000000000000000000000000000000000000000082169050919050565b600073ffffffffffffffffffffffffffffffffffffffff82169050919050565b6000819050919050565b82818337600083830152505050565b60005b838110156153b0578082015181840152602081019050615395565b838111156153bf576000848401525b50505050565b600060028204905060018216806153dd57607f821691505b602082108114156153f1576153f0615500565b5b50919050565b6154008261555e565b810181811067ffffffffffffffff8211171561541f5761541e61552f565b5b80604052505050565b600061543382615379565b91507fffffffffffffffffffffffffffffffffffffffffffffffffffffffffffffffff821415615466576154656154a2565b5b600182019050919050565b600061547c82615379565b915061548783615379565b925082615497576154966154d1565b5b828206905092915050565b7f4e487b7100000000000000000000000000000000000000000000000000000000600052601160045260246000fd5b7f4e487b7100000000000000000000000000000000000000000000000000000000600052601260045260246000fd5b7f4e487b7100000000000000000000000000000000000000000000000000000000600052602260045260246000fd5b7f4e487b7100000000000000000000000000000000000000000000000000000000600052604160045260246000fd5b6000601f19601f8301169050919050565b7f45524332304361707065643a2063617020697320300000000000000000000000600082015250565b7f5061757361626c653a206e6f7420706175736564000000000000000000000000600082015250565b7f455243373231456e756d657261626c653a206f776e657220696e646578206f7560008201527f74206f6620626f756e6473000000000000000000000000000000000000000000602082015250565b7f4552433732313a207472616e7366657220746f206e6f6e20455243373231526560008201527f63656976657220696d706c656d656e7465720000000000000000000000000000602082015250565b7f45524331393637557067726164653a207570677261646520627265616b73206660008201527f7572746865722075706772616465730000000000000000000000000000000000602082015250565b7f4f776e61626c653a206e6577206f776e657220697320746865207a65726f206160008201527f6464726573730000000000000000000000000000000000000000000000000000602082015250565b7f4552433732313a20746f6b656e20616c7265616479206d696e74656400000000600082015250565b7f46756e6374696f6e206d7573742062652063616c6c6564207468726f7567682060008201527f64656c656761746563616c6c0000000000000000000000000000000000000000602082015250565b7f4661696c656420746f2073656e64204574686572000000000000000000000000600082015250565b7f4552433732313a207472616e7366657220746f20746865207a65726f2061646460008201527f7265737300000000000000000000000000000000000000000000000000000000602082015250565b7f4552433732313a20617070726f766520746f2063616c6c657200000000000000600082015250565b7f4361703a20416d6f756e74206d7573742062652067726561746572207468616e60008201527f207a65726f000000000000000000000000000000000000000000000000000000602082015250565b7f4d696e743a204d696e74696e67206973206e6f74206163746976650000000000600082015250565b7f46756e6374696f6e206d7573742062652063616c6c6564207468726f7567682060008201527f6163746976652070726f78790000000000000000000000000000000000000000602082015250565b7f4552433732313a206f70657261746f7220717565727920666f72206e6f6e657860008201527f697374656e7420746f6b656e0000000000000000000000000000000000000000602082015250565b7f5061757361626c653a2070617573656400000000000000000000000000000000600082015250565b7f4552433732313a20617070726f76652063616c6c6572206973206e6f74206f7760008201527f6e6572206e6f7220617070726f76656420666f7220616c6c0000000000000000602082015250565b7f4552433732313a2062616c616e636520717565727920666f7220746865207a6560008201527f726f206164647265737300000000000000000000000000000000000000000000602082015250565b7f4552433732313a206f776e657220717565727920666f72206e6f6e657869737460008201527f656e7420746f6b656e0000000000000000000000000000000000000000000000602082015250565b7f496e697469616c697a61626c653a20636f6e747261637420697320616c72656160008201527f647920696e697469616c697a6564000000000000000000000000000000000000602082015250565b7f4552433732313a206d696e7420746f20746865207a65726f2061646472657373600082015250565b7f45524337323155524953746f726167653a2055524920717565727920666f722060008201527f6e6f6e6578697374656e7420746f6b656e000000000000000000000000000000602082015250565b7f4552433732313a20617070726f76656420717565727920666f72206e6f6e657860008201527f697374656e7420746f6b656e0000000000000000000000000000000000000000602082015250565b7f2e6a736f6e000000000000000000000000000000000000000000000000000000600082015250565b7f455243313936373a206e657720696d706c656d656e746174696f6e206973206e60008201527f6f74206120636f6e747261637400000000000000000000000000000000000000602082015250565b7f4f776e61626c653a2063616c6c6572206973206e6f7420746865206f776e6572600082015250565b7f4552433732313a207472616e73666572206f6620746f6b656e2074686174206960008201527f73206e6f74206f776e0000000000000000000000000000000000000000000000602082015250565b7f4552433732314d657461646174613a2055524920717565727920666f72206e6f60008201527f6e6578697374656e7420746f6b656e0000000000000000000000000000000000602082015250565b7f4d696e743a20496e636f72726563742056616c75652053656e74000000000000600082015250565b7f4552433732313a20617070726f76616c20746f2063757272656e74206f776e6560008201527f7200000000000000000000000000000000000000000000000000000000000000602082015250565b7f416464726573733a2064656c65676174652063616c6c20746f206e6f6e2d636f60008201527f6e74726163740000000000000000000000000000000000000000000000000000602082015250565b50565b7f4552433732313a207472616e736665722063616c6c6572206973206e6f74206f60008201527f776e6572206e6f7220617070726f766564000000000000000000000000000000602082015250565b7f455243373231456e756d657261626c653a20676c6f62616c20696e646578206f60008201527f7574206f6620626f756e64730000000000000000000000000000000000000000602082015250565b7f496e697469616c697a61626c653a20636f6e7472616374206973206e6f74206960008201527f6e697469616c697a696e67000000000000000000000000000000000000000000602082015250565b7f4d696e743a20416c6c204368616d70696f6e732068617665206265656e20736f60008201527f6c64000000000000000000000000000000000000000000000000000000000000602082015250565b7f4d696e743a204f472063617020686173206265656e2072656163686564000000600082015250565b615ecf8161530f565b8114615eda57600080fd5b50565b615ee681615321565b8114615ef157600080fd5b50565b615efd8161532d565b8114615f0857600080fd5b50565b615f1481615379565b8114615f1f57600080fd5b5056fe68747470733a2f2f6474672d6e66742d6173736574732e73332e61702d736f757468656173742d312e616d617a6f6e6177732e636f6d2f6368616d70696f6e2f6d657461646174612f416464726573733a206c6f772d6c6576656c2064656c65676174652063616c6c206661696c6564a264697066735822122080ab3ad203a339f275b93e63e1a74fd804376f706ebaa81e97a95a604975a6f464736f6c63430008030033",
  "linkReferences": {},
  "deployedLinkReferences": {}
}